{
	"_format": "hh-sol-artifact-1",
	"contractName": "VTVLVestingFactory",
	"sourceName": "contracts/VTVLVestingFactory.sol",
	"abi": [
		{
			"anonymous": false,
			"inputs": [
				{
					"indexed": true,
					"internalType": "address",
					"name": "vestingAddress",
					"type": "address"
				},
				{
					"indexed": false,
					"internalType": "address",
					"name": "deployer",
					"type": "address"
				}
			],
			"name": "CreateVestingContract",
			"type": "event"
		},
		{
			"anonymous": false,
			"inputs": [
				{
					"indexed": true,
					"internalType": "address",
					"name": "previousOwner",
					"type": "address"
				},
				{
					"indexed": true,
					"internalType": "address",
					"name": "newOwner",
					"type": "address"
				}
			],
			"name": "OwnershipTransferred",
			"type": "event"
		},
		{
			"inputs": [
				{
					"internalType": "contract IERC20",
					"name": "_tokenAddress",
					"type": "address"
				},
				{
					"internalType": "uint256",
					"name": "fundAmount",
					"type": "uint256"
				},
				{
					"internalType": "address",
					"name": "_recipient",
					"type": "address"
				},
				{
					"components": [
						{
							"internalType": "uint40",
							"name": "startTimestamp",
							"type": "uint40"
						},
						{
							"internalType": "uint40",
							"name": "endTimestamp",
							"type": "uint40"
						},
						{
							"internalType": "uint40",
							"name": "cliffReleaseTimestamp",
							"type": "uint40"
						},
						{
							"internalType": "uint40",
							"name": "releaseIntervalSecs",
							"type": "uint40"
						},
						{
							"internalType": "uint256",
							"name": "linearVestAmount",
							"type": "uint256"
						},
						{
							"internalType": "uint112",
							"name": "cliffAmount",
							"type": "uint112"
						}
					],
					"internalType": "struct InputClaim",
					"name": "_claim",
					"type": "tuple"
				}
			],
			"name": "createVestingContract",
			"outputs": [],
			"stateMutability": "nonpayable",
			"type": "function"
		},
		{
			"inputs": [],
			"name": "owner",
			"outputs": [
				{
					"internalType": "address",
					"name": "",
					"type": "address"
				}
			],
			"stateMutability": "view",
			"type": "function"
		},
		{
			"inputs": [],
			"name": "renounceOwnership",
			"outputs": [],
			"stateMutability": "nonpayable",
			"type": "function"
		},
		{
			"inputs": [
				{
					"internalType": "address",
					"name": "newOwner",
					"type": "address"
				}
			],
			"name": "transferOwnership",
			"outputs": [],
			"stateMutability": "nonpayable",
			"type": "function"
		}
	],
	"bytecode": "0x608060405234801561001057600080fd5b5061001a3361001f565b61006f565b600080546001600160a01b038381166001600160a01b0319831681178455604051919092169283917f8be0079c531659141344cd1fd0a4f28419497f9722a3daafe3b4186f6b6457e09190a35050565b61318b8061007e6000396000f3fe60806040523480156200001157600080fd5b5060043610620000525760003560e01c8063696546551462000057578063715018a614620000705780638da5cb5b146200007a578063f2fde38b1462000099575b600080fd5b6200006e620000683660046200042e565b620000b0565b005b6200006e62000294565b600054604080516001600160a01b039092168252519081900360200190f35b6200006e620000aa3660046200052a565b620002ac565b8281608001518260a001516001600160701b0316620000d0919062000551565b10156200011b5760405162461bcd60e51b8152602060048201526014602482015273494e53554646494349454e545f42414c414e434560601b60448201526064015b60405180910390fd5b6000843384846040516200012f90620003d7565b6001600160a01b03948516815292841660208085019190915291909316604080840191909152835164ffffffffff90811660608086019190915292850151811660808086019190915291850151811660a080860191909152928501511660c084015283015160e0830152909101516001600160701b031661010082015261012001604051809103906000f080158015620001cd573d6000803e3d6000fd5b506040516323b872dd60e01b81523360048201526001600160a01b03808316602483015260448201879052919250908616906323b872dd906064016020604051808303816000875af115801562000228573d6000803e3d6000fd5b505050506040513d601f19601f820116820180604052508101906200024e919062000578565b506040513381526001600160a01b038216907fe5211516932e9042c46c90d9b551b41d1e991bc87e19bd664dc7b48f5323eef19060200160405180910390a25050505050565b6200029e6200032b565b620002aa600062000387565b565b620002b66200032b565b6001600160a01b0381166200031d5760405162461bcd60e51b815260206004820152602660248201527f4f776e61626c653a206e6577206f776e657220697320746865207a65726f206160448201526564647265737360d01b606482015260840162000112565b620003288162000387565b50565b6000546001600160a01b03163314620002aa5760405162461bcd60e51b815260206004820181905260248201527f4f776e61626c653a2063616c6c6572206973206e6f7420746865206f776e6572604482015260640162000112565b600080546001600160a01b038381166001600160a01b0319831681178455604051919092169283917f8be0079c531659141344cd1fd0a4f28419497f9722a3daafe3b4186f6b6457e09190a35050565b612bb9806200059d83390190565b6001600160a01b03811681146200032857600080fd5b803564ffffffffff811681146200041157600080fd5b919050565b80356001600160701b03811681146200041157600080fd5b6000806000808486036101208112156200044757600080fd5b85356200045481620003e5565b94506020860135935060408601356200046d81620003e5565b925060c0605f19820112156200048257600080fd5b5060405160c0810181811067ffffffffffffffff82111715620004b557634e487b7160e01b600052604160045260246000fd5b604052620004c660608701620003fb565b8152620004d660808701620003fb565b6020820152620004e960a08701620003fb565b6040820152620004fc60c08701620003fb565b606082015260e086013560808201526200051a610100870162000416565b60a0820152939692955090935050565b6000602082840312156200053d57600080fd5b81356200054a81620003e5565b9392505050565b600082198211156200057357634e487b7160e01b600052601160045260246000fd5b500190565b6000602082840312156200058b57600080fd5b815180151581146200054a57600080fdfe60a060405260006002553480156200001657600080fd5b5060405162002bb938038062002bb983398101604081905262000039916200080d565b6200004433620000e7565b600180556001600160a01b038416620000965760405162461bcd60e51b815260206004820152600f60248201526e494e56414c49445f4144445245535360881b60448201526064015b60405180910390fd5b6001600160a01b038416608052620000ae83620000e7565b620000dd82826000015183602001518460400151856060015186608001518760a001516200013760201b60201c565b50505050620009bc565b600080546001600160a01b038381166001600160a01b0319831681178455604051919092169283917f8be0079c531659141344cd1fd0a4f28419497f9722a3daafe3b4186f6b6457e09190a35050565b6001600160a01b0387166000908152600360205260409020805488919064ffffffffff1615620001aa5760405162461bcd60e51b815260206004820152601460248201527f434c41494d5f414c52454144595f45584953545300000000000000000000000060448201526064016200008d565b6001600160a01b038916620001f45760405162461bcd60e51b815260206004820152600f60248201526e494e56414c49445f4144445245535360881b60448201526064016200008d565b60006200020b6001600160701b038516866200092b565b116200025a5760405162461bcd60e51b815260206004820152601560248201527f494e56414c49445f5645535445445f414d4f554e54000000000000000000000060448201526064016200008d565b60008864ffffffffff1611620002b35760405162461bcd60e51b815260206004820152601760248201527f494e56414c49445f53544152545f54494d455354414d5000000000000000000060448201526064016200008d565b8664ffffffffff168864ffffffffff1610620003125760405162461bcd60e51b815260206004820152601560248201527f494e56414c49445f454e445f54494d455354414d50000000000000000000000060448201526064016200008d565b60008564ffffffffff16116200036b5760405162461bcd60e51b815260206004820152601860248201527f494e56414c49445f52454c454153455f494e54455256414c000000000000000060448201526064016200008d565b8462000378898962000946565b6200038491906200096f565b64ffffffffff1615620003da5760405162461bcd60e51b815260206004820152601760248201527f494e56414c49445f494e54455256414c5f4c454e47544800000000000000000060448201526064016200008d565b60008664ffffffffff16118015620003fb57506000836001600160701b0316115b80156200041657508764ffffffffff168664ffffffffff1611155b806200043a575064ffffffffff86161580156200043a57506001600160701b038316155b620004785760405162461bcd60e51b815260206004820152600d60248201526c24a72b20a624a22fa1a624a32360991b60448201526064016200008d565b6000600360008b6001600160a01b03166001600160a01b031681526020019081526020016000209050888160000160006101000a81548164ffffffffff021916908364ffffffffff160217905550878160000160056101000a81548164ffffffffff021916908364ffffffffff160217905550600081600301600f6101000a81548164ffffffffff021916908364ffffffffff1602179055508681600001600a6101000a81548164ffffffffff021916908364ffffffffff1602179055508581600001600f6101000a81548164ffffffffff021916908364ffffffffff160217905550848160010181905550838160030160006101000a8154816001600160701b0302191690836001600160701b0316021790555060008160020181905550600181600301600e6101000a81548160ff021916908315150217905550600085856001600160701b0316620005cd91906200092b565b905080600254620005df91906200092b565b6080516040516370a0823160e01b81523060048201526001600160a01b03909116906370a0823190602401602060405180830381865afa15801562000628573d6000803e3d6000fd5b505050506040513d601f19601f820116820180604052508101906200064e9190620009a2565b10156200069e5760405162461bcd60e51b815260206004820152601460248201527f494e53554646494349454e545f42414c414e434500000000000000000000000060448201526064016200008d565b8060026000828254620006b291906200092b565b9091555050600480546001810182556000919091527f8a35acfbc15ff81a39ae7d344fd709f28e8600b4aa8c65c6b64bfe7fe36bd19b0180546001600160a01b0319166001600160a01b038d169081179091556040517f94236aa8f08a6558c854d068f832a9f6ef202e7db2b87d0a060ad02562ba8d5890620007ac908590815464ffffffffff8082168352602882901c81166020840152605082901c81166040840152607891821c8116606084015260018401546080840152600284015460a08401526003909301546001600160701b03811660c0840152607081901c60ff16151560e0840152901c9091166101008201526101200190565b60405180910390a25050505050505050505050565b6001600160a01b0381168114620007d757600080fd5b50565b805164ffffffffff81168114620007f057600080fd5b919050565b80516001600160701b0381168114620007f057600080fd5b6000806000808486036101208112156200082657600080fd5b85516200083381620007c1565b60208701519095506200084681620007c1565b60408701519094506200085981620007c1565b925060c0605f19820112156200086e57600080fd5b5060405160c081016001600160401b0381118282101715620008a057634e487b7160e01b600052604160045260246000fd5b604052620008b160608701620007da565b8152620008c160808701620007da565b6020820152620008d460a08701620007da565b6040820152620008e760c08701620007da565b606082015260e08601516080820152620009056101008701620007f5565b60a0820152939692955090935050565b634e487b7160e01b600052601160045260246000fd5b6000821982111562000941576200094162000915565b500190565b600064ffffffffff8381169083168181101562000967576200096762000915565b039392505050565b600064ffffffffff808416806200099657634e487b7160e01b600052601260045260246000fd5b92169190910692915050565b600060208284031215620009b557600080fd5b5051919050565b6080516121be620009fb600039600081816102f40152818161069201528181610af701528181610b7a01528181610cb8015261165e01526121be6000f3fe608060405234801561001057600080fd5b50600436106101215760003560e01c806389885049116100ad578063e50373f911610071578063e50373f91461033c578063e865fbc71461034f578063ed83a4b214610357578063f2fde38b1461036a578063f37d94b41461037d57600080fd5b806389885049146102b75780638da5cb5b146102ca5780639d76ea58146102ef578063ae9741aa14610316578063d77836ce1461032957600080fd5b80634a0e701e116100f45780634a0e701e146101675780634cd3723a1461017a578063715018a6146102875780637197dec31461028f578063852e72e9146102a457600080fd5b80630216ee4114610126578063137c68fa1461013b578063241c5b1f146101575780633ccfd60b1461015f575b600080fd5b6101396101343660046119a3565b610390565b005b61014460025481565b6040519081526020015b60405180910390f35b600454610144565b610139610528565b6101446101753660046119da565b610706565b61027a6101883660046119a3565b6040805161012081018252600080825260208201819052918101829052606081018290526080810182905260a0810182905260c0810182905260e08101829052610100810191909152506001600160a01b0316600090815260036020818152604092839020835161012081018552815464ffffffffff8082168352600160281b8204811694830194909452600160501b8104841695820195909552600160781b948590048316606082015260018201546080820152600282015460a08201529201546001600160701b03811660c084015260ff600160701b820416151560e08401529290920490911661010082015290565b60405161014e9190611a0f565b6101396107d6565b6102976107ea565b60405161014e9190611aa1565b6101396102b2366004611b05565b61084c565b6101446102c53660046119a3565b610875565b6000546001600160a01b03165b6040516001600160a01b03909116815260200161014e565b6102d77f000000000000000000000000000000000000000000000000000000000000000081565b610139610324366004611d30565b610939565b610139610337366004611e4b565b610ab6565b61013961034a3660046119a3565b610b68565b610144610c94565b6101446103653660046119a3565b610d32565b6101396103783660046119a3565b610dde565b61014461038b3660046119a3565b610e54565b610398610f56565b6001600160a01b0381166000908152600360205260409020805482919064ffffffffff166103e15760405162461bcd60e51b81526004016103d890611e64565b60405180910390fd5b6003810154600160701b900460ff1661040c5760405162461bcd60e51b81526004016103d890611e64565b6001600160a01b03831660009081526003602052604081209061042e85610d32565b9050808260020154106104785760405162461bcd60e51b81526020600482015260126024820152711393d7d553959154d5115117d05353d5539560721b60448201526064016103d8565b60038201805464ffffffffff42908116600160781b0265ffffffffffff60701b19909216919091179091556000906104b1908790610706565b905060006104bf8284611ea3565b905080600260008282546104d39190611ea3565b92505081905550866001600160a01b03167fd93a85b4fc6775ce81af625c853805c5fff7a940704c5bffbe0e35ac6c67a28d82428760405161051793929190611f48565b60405180910390a250505050505050565b336000818152600360205260409020805464ffffffffff1661055c5760405162461bcd60e51b81526004016103d890611e64565b6003810154600160701b900460ff166105875760405162461bcd60e51b81526004016103d890611e64565b61058f610fb0565b336000818152600360205260408120916105a99042610706565b90508160020154811180156105be5750600081115b6106005760405162461bcd60e51b81526020600482015260136024820152724e4f5448494e475f544f5f574954484452415760681b60448201526064016103d8565b60008260020154826106129190611ea3565b90506000811161065a5760405162461bcd60e51b81526020600482015260136024820152724e4f5448494e475f544f5f574954484452415760681b60448201526064016103d8565b8083600201600082825461066e9190611f6a565b9250508190555080600260008282546106879190611ea3565b909155506106c190507f00000000000000000000000000000000000000000000000000000000000000006001600160a01b03163383611009565b60405181815233907fd8138f8a3f377c5259ca548e70e4c2de94f129f5a11036a15b69513cba2b426a9060200160405180910390a250505061070260018055565b5050565b6001600160a01b0382166000908152600360208181526040808420815161012081018352815464ffffffffff8082168352600160281b8204811695830195909552600160501b8104851693820193909352600160781b928390048416606082015260018201546080820152600282015460a08201529301546001600160701b03811660c085015260ff600160701b820416151560e0850181905291900490911661010083015282906107bd578161010001516107bf565b835b90506107cb8282611060565b925050505b92915050565b6107de610f56565b6107e86000611188565b565b6060600480548060200260200160405190810160405280929190818152602001828054801561084257602002820191906000526020600020905b81546001600160a01b03168152600190910190602001808311610824575b5050505050905090565b610854610f56565b61086c8787878787876001600160701b0316876111d8565b50505050505050565b6001600160a01b0381166000908152600360208181526040808420815161012081018352815464ffffffffff8082168352600160281b8204811695830195909552600160501b8104851693820193909352600160781b928390048416606082015260018201546080820152600282015460a0820181905291909401546001600160701b03811660c086015260ff600160701b820416151560e0860152919091049091166101008301526109288442610706565b6109329190611ea3565b9392505050565b610941610f56565b86518651811480156109535750808651145b801561095f5750808551145b801561096b5750808451145b80156109775750808351145b80156109835750808251145b6109c75760405162461bcd60e51b8152602060048201526015602482015274082a4a482b2be988a9c8ea890be9a92a69a82a8869605b1b60448201526064016103d8565b60005b81811015610aab57610a998982815181106109e7576109e7611f82565b6020026020010151898381518110610a0157610a01611f82565b6020026020010151898481518110610a1b57610a1b611f82565b6020026020010151898581518110610a3557610a35611f82565b6020026020010151898681518110610a4f57610a4f611f82565b6020026020010151898781518110610a6957610a69611f82565b60200260200101516001600160701b0316898881518110610a8c57610a8c611f82565b60200260200101516111d8565b80610aa381611f98565b9150506109ca565b505050505050505050565b610abe610f56565b610ac6610fb0565b6000610ad0610c94565b905081811015610af25760405162461bcd60e51b81526004016103d890611fb1565b610b267f00000000000000000000000000000000000000000000000000000000000000006001600160a01b03163384611009565b60405182815233907fca1cf43de312865665f595e88f569f9d5246690c07df26e86aba01147e6d13149060200160405180910390a250610b6560018055565b50565b610b70610f56565b610b78610fb0565b7f00000000000000000000000000000000000000000000000000000000000000006001600160a01b0316816001600160a01b031603610be95760405162461bcd60e51b815260206004820152600d60248201526c24a72b20a624a22faa27a5a2a760991b60448201526064016103d8565b6040516370a0823160e01b81523060048201526000906001600160a01b038316906370a0823190602401602060405180830381865afa158015610c30573d6000803e3d6000fd5b505050506040513d601f19601f82011682018060405250810190610c549190611fdf565b905060008111610c765760405162461bcd60e51b81526004016103d890611fb1565b610c8a6001600160a01b0383163383611009565b50610b6560018055565b6002546040516370a0823160e01b8152306004820152600091906001600160a01b037f000000000000000000000000000000000000000000000000000000000000000016906370a0823190602401602060405180830381865afa158015610cff573d6000803e3d6000fd5b505050506040513d601f19601f82011682018060405250810190610d239190611fdf565b610d2d9190611ea3565b905090565b6001600160a01b0381166000908152600360208181526040808420815161012081018352815464ffffffffff8082168352600160281b82048116958301869052600160501b8204811694830194909452600160781b908190048416606083015260018301546080830152600283015460a083015291909401546001600160701b03811660c086015260ff600160701b820416151560e08601520416610100830152610932908290611060565b610de6610f56565b6001600160a01b038116610e4b5760405162461bcd60e51b815260206004820152602660248201527f4f776e61626c653a206e6577206f776e657220697320746865207a65726f206160448201526564647265737360d01b60648201526084016103d8565b610b6581611188565b6001600160a01b03811660009081526003602081905260408220908101548290600160701b900460ff16610e9a576003820154600160781b900464ffffffffff16610eab565b8154600160281b900464ffffffffff165b60028301546040805161012081018252855464ffffffffff8082168352600160281b820481166020840152600160501b8204811693830193909352600160781b90819004831660608301526001870154608083015260a0820184905260038701546001600160701b03811660c084015260ff600160701b820416151560e08401520490911661010082015291925090610f449083611060565b610f4e9190611ea3565b949350505050565b6000546001600160a01b031633146107e85760405162461bcd60e51b815260206004820181905260248201527f4f776e61626c653a2063616c6c6572206973206e6f7420746865206f776e657260448201526064016103d8565b6002600154036110025760405162461bcd60e51b815260206004820152601f60248201527f5265656e7472616e637947756172643a207265656e7472616e742063616c6c0060448201526064016103d8565b6002600155565b604080516001600160a01b038416602482015260448082018490528251808303909101815260649091019091526020810180516001600160e01b031663a9059cbb60e01b17905261105b908490611799565b505050565b60008260e0015115801561107e575061010083015164ffffffffff16155b1561108b575060006107d0565b6000836020015164ffffffffff168364ffffffffff1611156110af57836020015192505b836040015164ffffffffff168364ffffffffff16106110e35760c08401516110e0906001600160701b031682611f6a565b90505b836000015164ffffffffff168364ffffffffff16111561093257835160009061110c9085611ff8565b60608601519091506000906111218184612034565b61112b9190612058565b90506000866000015187602001516111439190611ff8565b905060008164ffffffffff168364ffffffffff1689608001516111669190612085565b61117091906120a4565b905061117c8186611f6a565b98975050505050505050565b600080546001600160a01b038381166001600160a01b0319831681178455604051919092169283917f8be0079c531659141344cd1fd0a4f28419497f9722a3daafe3b4186f6b6457e09190a35050565b6001600160a01b0387166000908152600360205260409020805488919064ffffffffff16156112405760405162461bcd60e51b8152602060048201526014602482015273434c41494d5f414c52454144595f45584953545360601b60448201526064016103d8565b6001600160a01b0389166112885760405162461bcd60e51b815260206004820152600f60248201526e494e56414c49445f4144445245535360881b60448201526064016103d8565b600061129d6001600160701b03851686611f6a565b116112e25760405162461bcd60e51b81526020600482015260156024820152741253959053125117d59154d5115117d05353d55395605a1b60448201526064016103d8565b60008864ffffffffff16116113395760405162461bcd60e51b815260206004820152601760248201527f494e56414c49445f53544152545f54494d455354414d5000000000000000000060448201526064016103d8565b8664ffffffffff168864ffffffffff161061138e5760405162461bcd60e51b81526020600482015260156024820152740494e56414c49445f454e445f54494d455354414d5605c1b60448201526064016103d8565b60008564ffffffffff16116113e55760405162461bcd60e51b815260206004820152601860248201527f494e56414c49445f52454c454153455f494e54455256414c000000000000000060448201526064016103d8565b846113f08989611ff8565b6113fa91906120b8565b64ffffffffff161561144e5760405162461bcd60e51b815260206004820152601760248201527f494e56414c49445f494e54455256414c5f4c454e47544800000000000000000060448201526064016103d8565b60008664ffffffffff1611801561146e57506000836001600160701b0316115b801561148857508764ffffffffff168664ffffffffff1611155b806114aa575064ffffffffff86161580156114aa57506001600160701b038316155b6114e65760405162461bcd60e51b815260206004820152600d60248201526c24a72b20a624a22fa1a624a32360991b60448201526064016103d8565b6000600360008b6001600160a01b03166001600160a01b031681526020019081526020016000209050888160000160006101000a81548164ffffffffff021916908364ffffffffff160217905550878160000160056101000a81548164ffffffffff021916908364ffffffffff160217905550600081600301600f6101000a81548164ffffffffff021916908364ffffffffff1602179055508681600001600a6101000a81548164ffffffffff021916908364ffffffffff1602179055508581600001600f6101000a81548164ffffffffff021916908364ffffffffff160217905550848160010181905550838160030160006101000a8154816001600160701b0302191690836001600160701b0316021790555060008160020181905550600181600301600e6101000a81548160ff021916908315150217905550600085856001600160701b03166116399190611f6a565b9050806002546116499190611f6a565b6040516370a0823160e01b81523060048201527f00000000000000000000000000000000000000000000000000000000000000006001600160a01b0316906370a0823190602401602060405180830381865afa1580156116ad573d6000803e3d6000fd5b505050506040513d601f19601f820116820180604052508101906116d19190611fdf565b10156116ef5760405162461bcd60e51b81526004016103d890611fb1565b80600260008282546117019190611f6a565b9091555050600480546001810182556000919091527f8a35acfbc15ff81a39ae7d344fd709f28e8600b4aa8c65c6b64bfe7fe36bd19b0180546001600160a01b0319166001600160a01b038d169081179091556040517f94236aa8f08a6558c854d068f832a9f6ef202e7db2b87d0a060ad02562ba8d58906117849085906120dc565b60405180910390a25050505050505050505050565b60006117ee826040518060400160405280602081526020017f5361666545524332303a206c6f772d6c6576656c2063616c6c206661696c6564815250856001600160a01b031661186b9092919063ffffffff16565b80519091501561105b578080602001905181019061180c91906120eb565b61105b5760405162461bcd60e51b815260206004820152602a60248201527f5361666545524332303a204552433230206f7065726174696f6e20646964206e6044820152691bdd081cdd58d8d9595960b21b60648201526084016103d8565b6060610f4e848460008585600080866001600160a01b031685876040516118929190612139565b60006040518083038185875af1925050503d80600081146118cf576040519150601f19603f3d011682016040523d82523d6000602084013e6118d4565b606091505b50915091506118e5878383876118f0565b979650505050505050565b6060831561195f578251600003611958576001600160a01b0385163b6119585760405162461bcd60e51b815260206004820152601d60248201527f416464726573733a2063616c6c20746f206e6f6e2d636f6e747261637400000060448201526064016103d8565b5081610f4e565b610f4e83838151156119745781518083602001fd5b8060405162461bcd60e51b81526004016103d89190612155565b6001600160a01b0381168114610b6557600080fd5b6000602082840312156119b557600080fd5b81356109328161198e565b803564ffffffffff811681146119d557600080fd5b919050565b600080604083850312156119ed57600080fd5b82356119f88161198e565b9150611a06602084016119c0565b90509250929050565b815164ffffffffff908116825260208084015182169083015260408084015182169083015260608084015191821690830152610120820190506080830151608083015260a083015160a083015260c0830151611a7660c08401826001600160701b03169052565b5060e0830151611a8a60e084018215159052565b506101009283015164ffffffffff16919092015290565b6020808252825182820181905260009190848201906040850190845b81811015611ae25783516001600160a01b031683529284019291840191600101611abd565b50909695505050505050565b80356001600160701b03811681146119d557600080fd5b600080600080600080600060e0888a031215611b2057600080fd5b8735611b2b8161198e565b9650611b39602089016119c0565b9550611b47604089016119c0565b9450611b55606089016119c0565b9350611b63608089016119c0565b9250611b7160a08901611aee565b9150611b7f60c08901611aee565b905092959891949750929550565b634e487b7160e01b600052604160045260246000fd5b604051601f8201601f1916810167ffffffffffffffff81118282101715611bcc57611bcc611b8d565b604052919050565b600067ffffffffffffffff821115611bee57611bee611b8d565b5060051b60200190565b600082601f830112611c0957600080fd5b81356020611c1e611c1983611bd4565b611ba3565b82815260059290921b84018101918181019086841115611c3d57600080fd5b8286015b84811015611c61578035611c548161198e565b8352918301918301611c41565b509695505050505050565b600082601f830112611c7d57600080fd5b81356020611c8d611c1983611bd4565b82815260059290921b84018101918181019086841115611cac57600080fd5b8286015b84811015611c6157611cc1816119c0565b8352918301918301611cb0565b600082601f830112611cdf57600080fd5b81356020611cef611c1983611bd4565b82815260059290921b84018101918181019086841115611d0e57600080fd5b8286015b84811015611c6157611d2381611aee565b8352918301918301611d12565b600080600080600080600060e0888a031215611d4b57600080fd5b873567ffffffffffffffff80821115611d6357600080fd5b611d6f8b838c01611bf8565b985060208a0135915080821115611d8557600080fd5b611d918b838c01611c6c565b975060408a0135915080821115611da757600080fd5b611db38b838c01611c6c565b965060608a0135915080821115611dc957600080fd5b611dd58b838c01611c6c565b955060808a0135915080821115611deb57600080fd5b611df78b838c01611c6c565b945060a08a0135915080821115611e0d57600080fd5b611e198b838c01611cce565b935060c08a0135915080821115611e2f57600080fd5b50611e3c8a828b01611cce565b91505092959891949750929550565b600060208284031215611e5d57600080fd5b5035919050565b6020808252600f908201526e4e4f5f4143544956455f434c41494d60881b604082015260600190565b634e487b7160e01b600052601160045260246000fd5b600082821015611eb557611eb5611e8d565b500390565b805464ffffffffff8082168452602882901c81166020850152605082901c81166040850152607882901c8116606085015260018301546080850152600283015460a085015260038301546001600160701b03811660c08601529150611f2960e0850160ff8460701c1615159052565b611f426101008501828460781c1664ffffffffff169052565b50505050565b83815264ffffffffff831660208201526101608101610f4e6040830184611eba565b60008219821115611f7d57611f7d611e8d565b500190565b634e487b7160e01b600052603260045260246000fd5b600060018201611faa57611faa611e8d565b5060010190565b602080825260149082015273494e53554646494349454e545f42414c414e434560601b604082015260600190565b600060208284031215611ff157600080fd5b5051919050565b600064ffffffffff8381169083168181101561201657612016611e8d565b039392505050565b634e487b7160e01b600052601260045260246000fd5b600064ffffffffff8084168061204c5761204c61201e565b92169190910492915050565b600064ffffffffff8083168185168183048111821515161561207c5761207c611e8d565b02949350505050565b600081600019048311821515161561209f5761209f611e8d565b500290565b6000826120b3576120b361201e565b500490565b600064ffffffffff808416806120d0576120d061201e565b92169190910692915050565b61012081016107d08284611eba565b6000602082840312156120fd57600080fd5b8151801515811461093257600080fd5b60005b83811015612128578181015183820152602001612110565b83811115611f425750506000910152565b6000825161214b81846020870161210d565b9190910192915050565b602081526000825180602084015261217481604085016020870161210d565b601f01601f1916919091016040019291505056fea2646970667358221220f86402e136f424f21d40e78bdf4101328206dfbea8057a7e7d03e7ea13f627b764736f6c634300080e0033a26469706673582212209d3eb8777fa49e1d2c639c1216105535065c5465f39c2fff7faf30491cff5e2e64736f6c634300080e0033",
	"linkReferences": {},
	"deployedLinkReferences": {}
}